:020000040800F2
:10000000C0040020BD1600082516000827160008A9
:10001000291600082B1600082D1600080000000005
:100020000000000000000000000000002F16000883
:1000300031160008000000003316000835160008CD
:10004000E9160008ED160008F1160008F51600087C
:10005000F9160008FD16000801170008051700082A
:10006000091700080D1700081117000815170008D8
:10007000191700081D170008211700082517000888
:10008000291700082D170008311700083517000838
:10009000391700083D1700084117000845170008E8
:1000A000491700084D170008511700085517000898
:1000B000591700085D170008611700086517000848
:1000C000691700086D1700087117000875170008F8
:1000D000791700087D1700088117000885170008A8
:1000E000891700088D170008911700089517000858
:1000F000991700089D170008A1170008A517000808
:10010000A9170008AD170008B1170008B5170008B7
:10011000B9170008BD170008C1170008C517000867
:1001200039160008C9170008CD170008D1170008B4
:10013000D5170008D9170008DD170008E1170008D7
:10014000E5170008E9170008ED170008F117000887
:10015000F5170008F9170008FD1700080118000836
:1001600005180008091800080D18000811180008E3
:1001700015180008191800081D18000800000000D4
:10018000211800082518000870B5044600250CB990
:10019000012070BD04F13C06706820B9204600F0D3
:1001A00069FAB56035707068C10610D4706820F4C3
:1001B000885040F002007060204600F053F9B560AE
:1001C000716821F0020141F00101716000E0012538
:1001D00000203070284670BD816841F08041816008
:1001E0007047126802F01F02102A7047016841F040
:1001F000804101607047F8B50446002004F13C03DB
:1002000000901D78012D01D10220F2BD012018704F
:1002100020688568EE070FD48568DFF85C6345F0D9
:1002200001058560DFF854030568B5FBF6F606EBBB
:100230004606009600F00EF920688568EE0503D5A5
:10024000856825F4807585602568A868C60765D52A
:100250005F68DFF81C03074047F480775F606868D9
:10026000450505D5586820F4005040F4805058608A
:100270005868C50446BF986820F0060000209860C2
:1002800000251D70A36B0FF2FD20D863A36B0FF246
:100290005D301864A36B0FF25D30D8646FF02200FC
:1002A000256828602068436843F0806343601346F4
:1002B0002068856845F4807585600A46206800F1ED
:1002C0004C01A06B00F0A3FA2068DFF89422DFF85D
:1002D000A412136813F01F0F16D188420DD0A14944
:1002E000884204D1126812F01F0F1FD105E09E4909
:1002F00088421BD1FFF775FF18D2816811F0405F6B
:1003000014D1FFF769FF11E0884202BF97480168E6
:1003100011F0405F0AD1FFF769FF07E0586840F02D
:1003200010005860986840F0010098600020F2BD0D
:1003300078B502460020009092F83C30012B01D1A4
:10034000022072BD012082F83C0007240B6810686F
:100350000A2B11D30A3BC56803EB430300F076F880
:10036000C460C3680D688C68A5F10A0606EB4606F2
:10037000B4402343C3600FE0056903EB430304FA71
:1003800003F325EA0303036103690D688C6805EB39
:100390004505AC40234303611F244B68072B0CD257
:1003A0005B1E456B00F050F84463436B4D680C884E
:1003B0006E1E00F044F843631BE00D2B0CD2DB1FD4
:1003C000056B00F041F80463036B4D680C88EE1F69
:1003D00000F035F803630CE00D3BC56A00F034F81B
:1003E000C462C36A4D680C88A5F10D0600F027F8B9
:1003F000C362604B98421DD10C685948122C03D13E
:10040000036843F4800303600B68102B18BF112BA3
:1004100010D1036843F4000303600868102809D171
:100420005649554C0B68B3FBF4F40A20444300943E
:1004300000F010F8002182F83C10002072BD06EB9D
:100440008606B4402343704703EB83039C4025EAB0
:100450000404704702E00098401E009000980028B5
:10046000F9D170473E4A116821F440311160136898
:1004700041680B4313600268536823F48073536030
:100480005168036941EA03215160516821F04071CC
:100490005160536881680B435360936823F4006391
:1004A00093609368C1680B4393603549836A8B42BC
:1004B00010D0936823F0706393609368816A0B4354
:1004C0009360936823F0405393609368C16A0B4331
:1004D000936007E0916821F070619160916821F06C
:1004E00040519160916821F0020191609168037E12
:1004F00041EA4301916090F82010002951680CD026
:1005000041F400615160516821F4604151605168CB
:10051000436A5B1E41EA433101E021F4006151600E
:10052000D16A21F47001D162D16AC3695B1E41EACC
:100530000351D162916821F400719160916890F843
:10054000303041EA43219160916821F480619160EB
:100550009168406941EA8021916070470000000085
:1005600004230140002101400022014008200140F5
:10057000FEF9FFFF0020014040420F000C00002068
:100580000100000F816B0A6C12F0500F24D1086C2F
:1005900040F4007008640A68906810F0405F04BF7F
:1005A000087E002815D1D06A10F4700F02D0906830
:1005B00043050ED4506820F020005060086C20F4F1
:1005C00080700864086CC20403D4086C40F0010019
:1005D0000864084600F04CBA0A6CD30644BF0846CB
:1005E00000F047BA896BCA6C10470000806B00F0BE
:1005F00041BA0000806B40210164426C42F0040269
:10060000426400F036BA30B4002513E050F8042BF1
:10061000D30744BFA9F101039A18091F042942F81E
:10062000045BFAD213468C0744BF15809B1CC90794
:1006300048BF1D7050F8041B0029E7D130BC70473B
:1006400081B00020009000222F48416841F4804191
:100650004160416801F48041009100990092036873
:1006600043F080530360006800F0805000900098D1
:1006700001B0704770B586B0044601A8142100F09F
:10068000FBF92568214EB5423CD1002000900022A4
:100690001F48204D416941F480714161416901F475
:1006A00080710091009900920221036843F00103D8
:1006B00003600322006800F00100009000981648D3
:1006C000019102920021039101A900F0D9F9134888
:1006D000286000214FF4805068616960E9602961F9
:1006E0004FF4807000224FF48041E861AA60A96154
:1006F0002A626A62284600F013F808B100F0A8FBED
:10070000A563AC6306B070BD4038024000200140D4
:100710003038024010000020000002401064024007
:1007200070B5044600F096FB06460CB9012070BD7A
:1007300004F13405022068700021297020680268E5
:1007400052085200026022681068C10722D500F0EA
:1007500081FB801B0628F6D32020286203216970C4
:10076000032070BDB0F5005F09D1032E42D8DFE849
:1007700006F00C0A0C02B1F1C07F3BD105E0022E5D
:1007800003D9F61E36D1C80134D540212962012093
:10079000687070BD1368DFF86C0261680340A06880
:1007A0000B43E168034320690B4361690343A0697C
:1007B0000B43E1690343206A0B43616A0343042945
:1007C00003D1E16A206B01430B43136023685A692C
:1007D000606AD208042840EAC2020BD1A66AE16A24
:1007E000324339B1A0690028BCD1002E18BF022EB7
:1007F000C9D0C0D35A61204600F022F9A96A3F222D
:100800008A408260002028620121697070BDF8B5BD
:10081000044604F1340600253078776A012801D1B6
:100820000220F2BD01203070707801281CD1022016
:1008300070703562204600F0F3F8B06A3F2101FA8B
:1008400000F0B8602068016841F016010160F068AE
:1008500020B12068016841F008010160206801684A
:1008600041F00101016001E0357002252846F2BD2A
:100870002DE9FC41044604F1340600206249009051
:100880004FF41650776A0A683D68B2FBF0F8B06A18
:10089000082100F0BCF80ED02068026853070AD582
:1008A000026822F004020260B06A8140B960316AD5
:1008B00041F001013162B06A25FA00F1CA070BD597
:1008C00021684A69110607D5012202FA00F0B860D2
:1008D000306A40F002003062042100F097F808D03E
:1008E00021680A68930704D5B860306A40F00400B4
:1008F0003062102100F08AF819D021680A681307C5
:1009000015D5B860206801684A0307D5006801035F
:1009100009D5716959B12046884708E00168CA05C0
:1009200001D400F078F8F16809B120468847B06A30
:10093000202100F06CF843D021680A68D3063FD527
:10094000B86020687178052920D1026822F016026B
:1009500002602068416921F080014161F06800284F
:1009600004BF7069002802D0206800F054F83F22CC
:10097000B06A8240BA60012171700020F169307064
:1009800000293CD02046BDE8FC41084701684A03E5
:1009900007D5006801030FD4316989B12046884723
:1009A0000EE00168CA0507D4016821F0100101605A
:1009B0000120707000213170B16809B1204688476C
:1009C000306AE0B1306AC10713D505207070206825
:1009D00001684908490001600098401C804500906A
:1009E00003D320680168CA07F6D401207070002183
:1009F0003170B16919B12046BDE8FC410847BDE836
:100A0000F38100003F8010F00C000020B06A01FA72
:100A100000F005427047016821F00801016070474D
:100A200030B50468256825F48025256063608068FA
:100A3000402802D1A260E16030BDA160E26030BD1B
:100A400030B5016808A401F0FF02103A1823B2FB88
:100A5000F3F2890A8902A55CC565042A28BF091D2D
:100A60008165084630BD000000061016000610160D
:100A70007047704770470000002200F0F1B9000095
:100A80002DE9F84F0D464FF000086F490F22012362
:100A900004462E6803FA08F000EA0609814540F092
:100AA000C6804FEA480C032606FA0CF66FEA060EDB
:100AB0006E6806F00307012F1CBF06F00306022E26
:100AC00011D1A668EF680EEA060607FA0CF73E4356
:100AD000A660666826EA00006E68C6F3001606FA8D
:100AE00008F6304360604FEA88002E7906F003066E
:100AF000032E1FD0E668AF680EEA060607FA0CF769
:100B00003E43E6602E7906F00306022E12D14FEA2C
:100B1000D80604EB860600F01C07D6F820A002FADF
:100B200007FB2AEA0B0AD5F810B00BFA07F747EAD9
:100B30000A07376226680EEA06072E7906F00306D2
:100B400006FA0CF63E4326606E6816F4403F6ED0FF
:100B5000002600964FEA980C0E68DFF8F0E046F4A5
:100B600080460E6000F00C000E6806F48046009689
:100B7000009E5EF82C7002FA00F627EA0606344F53
:100B8000BC4208BF002722D0324FBC4208BF012719
:100B90001DD0314FBC4208BF022718D02F4FBC4296
:100BA00008BF032713D02E4FBC4208BF04270ED026
:100BB0002C4FBC4208BF052709D02B4FBC4208BFB1
:100BC000062704D0294FBC420CBF0727082707FA85
:100BD00000F030434EF82C006FEA090C24480668F8
:100BE0000CEA060E6E68F70348BF49EA0E0EC0F81D
:100BF00000E046680CEA060E6E68B70348BF49EA93
:100C00000E0EC0F804E086680CEA060E6E68F70265
:100C100048BF49EA0E0EC0F808E0C6680CEA060EA6
:100C20006E68B60248BF49EA0E0EC0F80CE008F143
:100C30000108B8F10F0F7FF62CAFBDE8F18F02B9B4
:100C400009048161704700004438024008380140BF
:100C5000000002400004024000080240000C024074
:100C6000001002400014024000180240001C024024
:100C7000003C014070B586B000F00CF900F08CF833
:100C800001A81421FFF7F8FE00206A4D6A4C00907D
:100C9000296841F0800129600021286800F0800067
:100CA0000090009800912A6842F001022A602868AA
:100CB00000F001000090009800914FF470412A6804
:100CC00042F008022A600022286800F00800009024
:100CD00000982046FFF7B3FF4FF4704101910122C5
:100CE000002103910491029201A92046FFF7C8FE5A
:100CF000002000900022296841F480012960002131
:100D000028684E4D00F48000009005F130060098F0
:100D1000382000F0F3F8382000F00DF96846102173
:100D2000FFF7AAFE4648286000210020286185F8C8
:100D300020006960A96001214248A862297601204B
:100D40000021E8616861E962E96031702846FFF7D7
:100D50001BFA08B100F07CF80120009001900022FD
:100D6000029269462846FFF7E3FA08B100F070F8EE
:100D700001224FF470412046FFF761FF082205F180
:100D800048012846FFF737FAB0693328BCBF002274
:100D90004FF4E041EFDBEBE780B592B006A83021DD
:100DA000FFF76AFE01A81421FFF766FE00200090FD
:100DB0004FF480332448016841F0805101600021E4
:100DC000006800F080500090009820480091026870
:100DD00042F4804202600122006800F480400090EA
:100DE00006A80099069202214FF480020C910D9200
:100DF000042138220E910F920221042207931091B0
:100E0000119200F0C3F808B100F022F8022102911B
:100E10000F204FF48051019000220491039205921B
:100E2000012101A800F04AFA08B100F011F813B04E
:100E300000BD000030380240000C0240700000206D
:100E4000002001400100000F4038024000700040C7
:100E500072B6FEE701484068704700BF00000020FE
:100E600000B500BF130096469446103928BFA0E88D
:100E70000C50FAD85FEA417C28BF0CC048BF40F84C
:100E8000042BC90728BF20F8022B48BF00F8012B0C
:100E900000BD000080B50B48016841F4007101609D
:100EA000026842F480620260016841F4807101606E
:100EB000032000F016F80F2000F0C0FAFFF7C0FB87
:100EC000002002BD003C02400901020002D4294872
:100ED00081547047284B02F00F021A4402F8041C98
:100EE0007047264B19684FF6FF020002114000F4CC
:100EF000E0600843224908431860704738B51F4B2B
:100F00001C68C4F30223C3F10704052C28BF042482
:100F10001D1D072D34BF0023DB1E012505FA04F437
:100F2000641E2140994005FA03F35B1E1A401143E9
:100F3000BDE83440C8E7010007D4012200F01F01DA
:100F4000104B8A40400943F82020704710B5401EDE
:100F5000B0F1807F01D3012010BD0B4C60600F21E8
:100F60004FF0FF30FFF7B0FF0021A16007202060A5
:100F7000002010BD00E400E018ED00E00CED00E002
:100F80000000FA0500E100E010E000E02DE9F84380
:100F9000040016D02078DFF81463C10713D5B068B9
:100FA00000F00C00042807D0B06800F00C000828FE
:100FB0003ED1706841023BD53068810303D560683B
:100FC000002800F005812078B94F810719D5B06855
:100FD00010F00C0F07D0B06800F00C0008285CD1AE
:100FE0007068410259D43068810703D5E068012850
:100FF00040F0EE803168206921F0F80141EAC0013B
:101000003160217808076CD56069AA49002862D050
:1010100001220A60FFF71EFF0546706F810700F18D
:10102000D980FFF717FF401B0228F6D903203AE1C9
:101030006068B0F5803F04D1306840F480303060A3
:1010400011E0B0F5A02F306806D140F48020306068
:10105000316841F4803105E020F48030306031683F
:1010600021F480213160606858B1FFF7F3FE054636
:1010700030688103A7D4FFF7EDFE401B6528F7D346
:10108000D4E7FFF7E7FE0546306881039BD5FFF7FD
:10109000E1FE401B6528F7D3C8E7E06870B1012185
:1010A0003960FFF7D7FE05463068810700F1BE8042
:1010B000FFF7D0FE401B0228F6D9B7E73860FFF7EC
:1010C000C9FE0546316888079BD5FFF7C3FE401B64
:1010D0000228F7D9AAE70860FFF7BCFE0546706F43
:1010E000810777D5FFF7B6FE401B0228F7D99DE7A9
:1010F0000528306F06D140F004003067306F40F0B3
:10110000010005E0400840003067306F20F0040027
:10111000306741F28938A06868B1FFF79BFE8146CD
:10112000306F810700F18F80FFF794FEA0EB09007C
:101130004045F5D37AE7FFF78DFE8146306F810792
:1011400040F18180FFF786FEA0EB09004045F5D312
:101150006CE7FFF77FFE401B022840F2878065E7BF
:10116000FFF778FE001B022840F298805EE700201F
:101170003866FFF76FFE04463068810140F19280C7
:10118000FFF768FE001B0228F6D94FE701281FD0A1
:101190007068E26900F48001914202BF00F03F01F3
:1011A000226A914201BF47F6C0710140626AB1EB09
:1011B000821F0DD1A26A520800F44031521EB1EBD9
:1011C000024F02BF00F07060E16AB0EB016F69D0BE
:1011D000012068E0207841073AD5306C0025C10035
:1011E0000AD400950125316C41F080513164306C96
:1011F00000F0805000900098DFF8BC80D8F8000024
:10120000C1051BD4D8F8000040F48070C8F8000075
:10121000FFF720FE8146D8F80000C1050ED4FFF785
:1012200019FEA0EB09000228F5D9FFE63068216914
:1012300020F0F80040EAC1003060E2E6A068012832
:101240007FF456AF5AE71DB1306C20F08050306407
:10125000A06938B3B16801F00C01082996D00228C2
:1012600085D100203866FFF7F5FD0546306881011D
:101270003FF56FAFE269206A616A0243A06A4008E5
:1012800042EA8112401E42EA0042E06A42EA0062FB
:10129000726001213966FFF7DDFD04463068810187
:1012A0007FF55EAF0020BDE8F28300BF003802404A
:1012B00000004742800E4742007000402DE9F04197
:1012C00004000F4678D0404E306800F00700B84266
:1012D00002D200F073F86FD120683C4D810712D51F
:1012E000400703D5A96841F4E051A96020780107BF
:1012F00003D5A86840F46040A860A968A06821F000
:10130000F0010143A9602178C8074DD56068012824
:1013100002D129688A0305E0022818BF032803D1F7
:1013200029688A0103D447E029688A0744D5A96857
:10133000890840EA8100A860FFF78CFD8046A86814
:10134000616800F00C00B0EB810F2DD0FFF782FD3B
:10135000A0EB080041F289318842F0D3032021E05C
:101360002078410705D5AA68E06822F4E0520243DC
:10137000AA602178080706D5A968206921F4604190
:1013800041EAC001A96000F029F8AA681049114B90
:10139000C2F30312895CC84018600F48006800F06F
:1013A0004DF80020BDE8F081306800F0070087426A
:1013B000D6D200F003F8D3D00120F3E737703168BC
:1013C00001F00701B9427047003C0240003802407A
:1013D000641600080C0000200800002030B5144CF2
:1013E000606800F00C00042802D0082802D01DE03C
:1013F000104830BD226820680023410202F03F02FD
:1014000004D525680B49C5F3881003E020680A4914
:10141000C0F38810A1FB000100F030F82168C1F38F
:101420000141491C4900B0FBF1F030BD024830BD1C
:101430000438024000127A000024F40038B50D4D43
:101440000D4B2A7804464FF47A711868B1FBF2F21A
:10145000B0FBF2F0FFF77AFD50B9102C08D2002251
:1014600021464FF0FF30FFF749FDAC60002032BD50
:10147000012032BD000000200C000020D3BBD9B1F8
:10148000B2F5803F5BD2022A1ED98C46B1FBF2F145
:1014900002FB11C31B0443EA1043B3FBF2FC02FB43
:1014A0001C3380B240EA0343B3FBF2F002FB10327C
:1014B00040EA0C4000237047022A05D98446B0FB5D
:1014C000F2F002FB10C270474AB105D100F00102F0
:1014D00049085FEA3000704700220023704700F09F
:1014E00051B80B000200002100207047F7D3002202
:1014F00000237047904271EB030CF2D370B5B1FA40
:1015000081F4B3FA83F52C1BA340C4F1200532FA11
:1015100005F63343A2405FF00046E64002E05B0878
:101520005FEA3202841A71EB030524BF2046294684
:101530007641F4D302000B003000002170BD70B57D
:10154000B1FA81F4B2FA82F5C4F120046419B4F15D
:101550002006DAD3B2405FF00044F440002502E0F8
:1015600052085FEA3303C61A71EB020E24BF3046FD
:10157000714664416D41F3D302000B002000290045
:1015800070BD0000704730B450F8041B79B1026898
:10159000436802440830DC0744BFA9F10104E318A2
:1015A00052F8045B43F8045B091FF9D1ECE730BC47
:1015B0007047000010B5074979441831064C7C4447
:1015C000163404E00A68081D114488470146A14208
:1015D000F8D110BD2C0000004C0000004EF68851E0
:1015E000CEF20001086840F470000860BFF34F8F2E
:1015F000BFF36F8F4FF00070E1EE100A70470000EC
:1016000007F0FFFFAC000000100000200000000009
:1016100077FFFFFF10000000B40000000000002072
:1016200000000000FEE7FEE7FEE7FEE7FEE770478A
:101630007047704700F006B80148FFF719B900007D
:10164000100000200248416802788A184260704702
:10165000000000200248016841F4700101607047F9
:1016600088ED00E00000000000000000010203041B
:101670000607080900F00DF8002801D0FFF79AFFCF
:10168000AFF300800020AFF30080FFF7F3FA00F023
:1016900002F80120704700F001B800000746384604
:1016A00000F002F8FBE7000080B5AFF30080024ACB
:1016B00011001820ABBEFBE726000200014880475E
:1016C0000148004755160008DD160008010000001B
:1016D00000000000100000000024F400AFF30080C0
:1016E000FFF77CFFFFF7C6FFFFF7FEBFFFF7FEBF68
:1016F000FFF7FEBFFFF7FEBFFFF7FEBFFFF7FEBF1E
:10170000FFF7FEBFFFF7FEBFFFF7FEBFFFF7FEBF0D
:10171000FFF7FEBFFFF7FEBFFFF7FEBFFFF7FEBFFD
:10172000FFF7FEBFFFF7FEBFFFF7FEBFFFF7FEBFED
:10173000FFF7FEBFFFF7FEBFFFF7FEBFFFF7FEBFDD
:10174000FFF7FEBFFFF7FEBFFFF7FEBFFFF7FEBFCD
:10175000FFF7FEBFFFF7FEBFFFF7FEBFFFF7FEBFBD
:10176000FFF7FEBFFFF7FEBFFFF7FEBFFFF7FEBFAD
:10177000FFF7FEBFFFF7FEBFFFF7FEBFFFF7FEBF9D
:10178000FFF7FEBFFFF7FEBFFFF7FEBFFFF7FEBF8D
:10179000FFF7FEBFFFF7FEBFFFF7FEBFFFF7FEBF7D
:1017A000FFF7FEBFFFF7FEBFFFF7FEBFFFF7FEBF6D
:1017B000FFF7FEBFFFF7FEBFFFF7FEBFFFF7FEBF5D
:1017C000FFF7FEBFFFF7FEBFFFF7FEBFFFF7FEBF4D
:1017D000FFF7FEBFFFF7FEBFFFF7FEBFFFF7FEBF3D
:1017E000FFF7FEBFFFF7FEBFFFF7FEBFFFF7FEBF2D
:1017F000FFF7FEBFFFF7FEBFFFF7FEBFFFF7FEBF1D
:10180000FFF7FEBFFFF7FEBFFFF7FEBFFFF7FEBF0C
:10181000FFF7FEBFFFF7FEBFFFF7FEBFFFF7FEBFFC
:08182000FFF7FEBFFFF7FEBF5A
:04000005080016DDFC
:00000001FF
